:020000040800F2
:1000000000280020DD0B0008010B0008070B00088A
:100010000D0B0008130B0008190B0008000000006E
:100020000000000000000000000000001F0B00089E
:100030002B0B000800000000370B0008430B0008E2
:10004000250C0008250C0008250C0008250C0008CC
:10005000250C0008250C0008250C0008250C0008BC
:10006000250C0008250C0008250C0008250C0008AC
:10007000250C0008250C0008250C0008250C00089C
:10008000250C0008250C0008250C0008250C00088C
:10009000250C0008250C0008250C0008250C00087C
:1000A000250C0008250C0008250C0008250C00086C
:1000B000510B0008250C000800000000250C00086A
:1000C000250C00080000000000000000250C0008BE
:1000D00000000000250C0008250C000800000000AE
:1000E000250C0008250C0008250C00080000000065
:1000F0000000000000000000000000000000000000
:0C01000000000000000000005FF808F1A3
:10010C0010B5054C237833B9044B13B10448AFF345
:10011C0000800123237010BD7C0000200000000033
:10012C006824000808B5034B1BB103490348AFF31F
:10013C00008008BD0000000080000020682400083A
:10014C0080B582B000AF0346FB7101227F212F489E
:10015C0001F050F8FB79092B52D801A252F823F088
:10016C0095010008A1010008AD010008B9010008C3
:10017C00C5010008D1010008DD010008E9010008F3
:10018C00F50100080102000800223F211F4801F080
:10019C0031F836E0002206211C4801F02BF830E043
:1001AC0000225B21194801F025F82AE000224F219A
:1001BC00164801F01FF824E000226621134801F0D4
:1001CC0019F81EE000226D21104801F013F818E018
:1001DC0000227D210D4801F00DF812E000220721CC
:1001EC000A4801F007F80CE000227F21074801F0D3
:1001FC0001F806E000226F21044800F0FBFF00E04C
:10020C0000BF00BF0837BD4680BD00BF000C0140D9
:10021C0080B582B000AF786001224FF4707108484D
:10022C0000F0E8FF074A7B6832F8133000221946C9
:10023C00034800F0DFFF00BF0837BD4680BD00BF9C
:10024C00000801408024000880B584B000AFF8603D
:10025C00B9601346FB71FB681B781846FFF7D8FF93
:10026C00FB681B781A46BB6813441B781846FFF7CB
:10027C0067FFFB681B780133FA7993FBF2F101FB02
:10028C0002F29B1ADAB2FB681A7000BF1037BD4637
:10029C0080BD000080B500AF1021024800F0C2FF05
:1002AC0000BF80BD0008014080B483B000AF78600F
:1002BC000B46FB701346BB70FB78184AA2FB03235A
:1002CC00DB08DAB27B681A707B68581CFA78134B1F
:1002DC00A3FB0213D9080B469B000B445B00D31AFB
:1002EC00DBB203707B680233BA780C49A1FB0212B3
:1002FC00D208D2B21A707B68D81CBA78074BA3FB11
:10030C000213D9080B469B000B445B00D31ADBB2DB
:10031C00037000BF0C37BD4680BC7047CDCCCCCC35
:10032C0080B500AF2F4B9B78C3F30503DBB23B2B9F
:10033C0038D92C4A93786FF305039370294B5B786B
:10034C00C3F30503DBB2013303F03F03D9B2254AF3
:10035C00537861F305035370224B5B78C3F30503A9
:10036C00DBB23B2B1ED91F4A53786FF30503537036
:10037C001C4B1B78C3F30403DBB2013303F01F03E4
:10038C00D9B2184A137861F304031370154B1B7818
:10039C00C3F30403DBB2172B04D9124A13786FF39F
:1003AC00040313700F4B1B78C3F30403DBB2194621
:1003BC000C4B5B78C3F30503DBB21A460A48FFF714
:1003CC0073FF084B9B78C3F30503DBB2013303F0D7
:1003DC003F03D9B2034A937861F30503937000BFCE
:1003EC0080BD00BF040000200000002080B500AFDD
:1003FC00042203490348FFF727FF00BF80BD00BF5D
:10040C00000000209800002080B584B000AF0346A7
:10041C00FB71FB79074AD35C9BB21B02FB81FB8906
:10042C0001221946044800F0E5FE00BF1037BD4616
:10043C0080BD00BF18000020000C014080B483B0C8
:10044C0000AF00237B6018E0104A7B6813441B78D4
:10045C00DB09FB700D4A7B6813441B785B005AB2B6
:10046C0097F9033013435BB2D9B2084A7B68134443
:10047C000A461A707B6801337B607B68072BE3DDCF
:10048C0000BF00BF0C37BD4680BC70471800002071
:10049C0080B500AF00224FF47F41124800F0AAFE55
:1004AC0000224FF60C41104800F0A4FE0F4B1B78B5
:1004BC0003F00703DBB21846FFF7A6FF0B4B1B78C4
:1004CC0003F007030A4A32F8133001221946064892
:1004DC0000F090FE054B1B780133DAB2034B1A7017
:1004EC0000BF80BD000C01400008014099000020B5
:1004FC000800002080B500AF2021024800F092FED9
:10050C0000BF80BD0008014080B500AF00F086FB45
:10051C0000F038F800F0BEF800F070F8124801F066
:10052C00C9FA00F021F964220121104800F05EF9AB
:10053C000A2203210E4800F059F91E220B210D4806
:10054C0000F054F9012207210B4800F04FF9322238
:10055C000D210A4800F04AF964221121084800F0E4
:10056C0045F900F00FFAFCE79C0000202D03000871
:10057C00F9030008490400089D040008A1020008C2
:10058C000105000880B590B000AF07F118032822D0
:10059C000021184601F0D6FE3B1D00221A605A605D
:1005AC009A60DA601A610223BB610123BB621023DB
:1005BC00FB6200237B6307F11803184600F04CFE26
:1005CC000346002B01D000F0CAF80F237B600023F8
:1005DC00BB600023FB6000233B6100237B613B1D60
:1005EC000021184601F0BAF80346002B01D000F0A8
:1005FC00B6F800BF4037BD4680BD000080B586B060
:10060C0000AF07F1080300221A605A609A60DA60A2
:10061C003B4600221A605A601D4B4FF080421A6014
:10062C001B4B41F63F725A60194B00229A60184BD3
:10063C000922DA60164B00221A61154B00229A61CE
:10064C00134801F0E7F90346002B01D000F087F8BE
:10065C004FF48053BB6007F1080319460C4801F0B6
:10066C0065FB0346002B01D000F079F800233B60BA
:10067C0000237B603B461946054801F03DFD0346CF
:10068C00002B01D000F06BF800BF1837BD4680BDC1
:10069C009C00002080B586B000AF07F10803002253
:1006AC001A605A609A60DA60224B9B69214A43F0C7
:1006BC00040393611F4B9B6903F004037B607B680D
:1006CC001C4B9B691B4A43F008039361194B9B69B4
:1006DC0003F008033B603B6800224FF6FC711648A0
:1006EC0000F088FD00224FF67F71144800F082FD67
:1006FC004FF6FC73BB600123FB6000233B610223BC
:10070C007B6107F1080319460B4800F0F7FB4FF625
:10071C007F73BB600123FB6000233B6102237B6181
:10072C0007F108031946054800F0E8FB00BF18372D
:10073C00BD4680BD0010024000080140000C014085
:10074C0080B582B000AF78607B681B68B3F1804FD6
:10075C0001D100F027F800BF0837BD4680BD80B43A
:10076C0000AF72B600BFFEE780B400AF044B0022AE
:10077C001A60034B00225A6000BFBD4680BC704714
:10078C00E400002080B400AF054B1B680133044A21
:10079C001360034B1B681846BD4680BC704700BFF6
:1007AC00EC00002080B400AF0F4B1B68002B17D05F
:1007BC000D4B1B681B7C002B12D10B4B1B689B68D1
:1007CC00002B04D0084B1B689A68013A9A60064BC0
:1007DC001B689B68002B03D1034B1B6801221A7406
:1007EC0000BFBD4680BC7047E400002080B58AB0D5
:1007FC0000AFF860B9607A60182001F0E7FC03469E
:10080C007B617B69002B03D05D4B5B68092B01D9A5
:10081C000023B1E05A4B1B68002B1ED1584A7B6950
:10082C001360574B5B680133554A53607B69FA6818
:10083C001A607B69BA689A607B697A68DA607B694E
:10084C0000221A74FFF79EFF02467B695A617B698E
:10085C0000225A607B695B698EE000233B620023B7
:10086C00FB770023BB6100233B610023FB77444BE8
:10087C001B687B6279E07B6A9B68BA691344BB6135
:10088C00BA69BB689A4238D97B6A9A68BB69D31A31
:10089C00BA6813443B61BA69BB68D21A7B6A9A6026
:1008AC007B697A6A5A603B6A002B03D03B6A7A698F
:1008BC005A6002E0324A7B6913607B69FA681A60FD
:1008CC007B693A699A607B697A68DA607B699B68B4
:1008DC00002B0CBF01230023DBB21A467B691A7470
:1008EC00FFF750FF02467B695A61254B5B68013369
:1008FC00234A53607B695B693EE0FA7F204B5B685F
:10090C00013B9A4229D1BA68BB69D31A3B617B6A15
:10091C007A695A607B6900225A607B69FA681A60AE
:10092C007B693A699A607B697A68DA607B699B6853
:10093C00002B0CBF01230023DBB21A467B691A740F
:10094C00FFF720FF02467B695A610D4B5B68013350
:10095C000B4A53607B695B690EE0FB7F0133FB77CD
:10096C007B6A3B627B6A5B687B62FA7F044B5B68E9
:10097C009A4280D37B695B6918462837BD4680BD97
:10098C00E4000020B0B586B000AF154B1B681B7C93
:10099C00002B21D0124B1B681B689847104B1B680F
:1009AC0000221A740E4B1B683C461D460FCD0FC41B
:1009BC0095E8030084E80300FB68002B0CD07B69EE
:1009CC00184600F00FF80346002B05D03B68F96879
:1009DC00FA681846FFF70AFF00BF1837BD46B0BDCE
:1009EC00E400002080B586B000AF78607B68002BF7
:1009FC0033D000233B610023FB730023FB73194BA3
:100A0C001B687B6124E07B695B697A689A4217D129
:100A1C00144B1B687A699A4204D17B695B68114A52
:100A2C00136003E07B695A683B695A60786901F08E
:100A3C00D5FB0C4B5B68013B0A4A536001230DE06C
:100A4C00FB7B0133FB737B693B617B695B687B617F
:100A5C00FA7B044B5B689A42D5D3002318461837AF
:100A6C00BD4680BDE400002080B483B000AF0E4BC7
:100A7C009B690D4A43F0010393610B4B9B6903F097
:100A8C0001037B607B68084BDB69074A43F08053AA
:100A9C00D361054BDB6903F080533B603B6800BFBF
:100AAC000C37BD4680BC70470010024080B584B046
:100ABC0000AF78607B681B68B3F1804F13D10C4B8F
:100ACC00DB690B4A43F00103D361094BDB6903F08B
:100ADC000103FB60FB68002200211C2000F0D7F909
:100AEC001C2000F0F0F900BF1037BD4680BD00BFE0
:100AFC000010024080B400AFFEE780B400AFFEE708
:100B0C0080B400AFFEE780B400AFFEE780B400AF66
:100B1C00FEE780B400AF00BFBD4680BC704780B418
:100B2C0000AF00BFBD4680BC704780B400AF00BFB3
:100B3C00BD4680BC704780B500AF00F0B5F800BF73
:100B4C0080BD000080B500AF024800F0FFFF00BF81
:100B5C0080BD00BF9C00002080B586B000AF7860DF
:100B6C00144A154BD31A7B617B693B61134B1B6891
:100B7C00002B02D1114B124A1A60104B1A687B6879
:100B8C0013443A699A4207D201F0F4FB03460C2253
:100B9C001A604FF0FF3309E0084B1B68FB60074BF2
:100BAC001A687B681344054A1360FB6818461837AB
:100BBC00BD4680BD0028002000040000F00000208D
:100BCC004002002080B400AF00BFBD4680BC70471F
:100BDC00FFF7F8FF0B480C490C4A002302E0D458ED
:100BEC00C4500433C4188C42F9D3094A094C00236D
:100BFC0001E013600432A242FBD301F0C1FBFFF70A
:100C0C0083FC7047000000207C000020B424000806
:100C1C007C00002040020020FEE7000080B500AF01
:100C2C00084B1B68074A43F010031360032000F0C5
:100C3C0023F90F2000F008F8FFF716FF00231846E1
:100C4C0080BD00BF0020024080B582B000AF78604C
:100C5C00124B1A68124B1B7819464FF47A73B3FB7C
:100C6C00F1F3B2FBF3F3184600F03BF90346002B0B
:100C7C0001D001230EE07B680F2B0AD80022796883
:100C8C004FF0FF3000F003F9064A7B681360002335
:100C9C0000E0012318460837BD4680BD2000002027
:100CAC00280000202400002080B400AF054B1B78E6
:100CBC001A46054B1B681344034A136000BFBD461C
:100CCC0080BC704728000020F400002080B400AFE6
:100CDC00024B1B681846BD4680BC7047F4000020D0
:100CEC0080B485B000AF78607B6803F00703FB60CD
:100CFC000C4BDB68BB60BA684FF6FF031340BB605C
:100D0C00FB681A02BB68134343F0BF6343F4003320
:100D1C00BB60044ABB68D36000BF1437BD4680BCBF
:100D2C00704700BF00ED00E080B400AF044BDB68FF
:100D3C001B0A03F007031846BD4680BC704700BF72
:100D4C0000ED00E080B483B000AF0346FB7197F96F
:100D5C000730002B0BDBFB7903F01F02064997F9D8
:100D6C0007305B09012000FA02F241F8232000BF92
:100D7C000C37BD4680BC704700E100E080B483B006
:100D8C0000AF03463960FB7197F90730002B0ADB83
:100D9C003B68DAB20C4997F907301201D2B20B4416
:100DAC0083F800230AE03B68DAB20849FB7903F0C8
:100DBC000F03043B1201D2B20B441A7600BF0C375E
:100DCC00BD4680BC704700BF00E100E000ED00E0D4
:100DDC0080B489B000AFF860B9607A60FB6803F04A
:100DEC000703FB61FB69C3F10703042B28BF042332
:100DFC00BB61FB690433062B02D9FB69033B00E0A2
:100E0C0000237B614FF0FF32BB6902FA03F3DA4334
:100E1C00BB681A407B699A404FF0FF317B6901FA3D
:100E2C0003F3D9437B680B40134318462437BD4664
:100E3C0080BC704780B582B000AF78607B68013BA6
:100E4C00B3F1807F01D301230FE00A4A7B68013B99
:100E5C0053600F214FF0FF30FFF790FF054B00223E
:100E6C009A60044B07221A60002318460837BD46C7
:100E7C0080BD00BF10E000E080B582B000AF7860AC
:100E8C007868FFF72DFF00BF0837BD4680BD80B5E1
:100E9C0086B000AF0346B9607A60FB7300237B61B8
:100EAC00FFF742FF78617A68B9687869FFF790FFBD
:100EBC00024697F90F3011461846FFF75FFF00BF47
:100ECC001837BD4680BD80B582B000AF0346FB71BC
:100EDC0097F907301846FFF735FF00BF0837BD46B6
:100EEC0080BD80B582B000AF78607868FFF7A2FF54
:100EFC00034618460837BD4680BD000080B48BB051
:100F0C0000AF7860396000237B6200233B6261E1B3
:100F1C0001227B6A02FA03F3FB613B681B68FA69E6
:100F2C001340BB61BA69FB699A4240F050813B683F
:100F3C005B68974A93425ED0954A934275D8954A1E
:100F4C00934258D0934A93426FD8934A934252D0CB
:100F5C00914A934269D8914A93424CD08F4A93421A
:100F6C0063D88F4A934246D08D4A93425DD8122B58
:100F7C002AD8122B59D801A252F823F003100008DA
:100F8C00DD0F0008EF0F00083110000837100008C3
:100F9C003710000837100008371000083710000809
:100FAC0037100008371000083710000837100008F9
:100FBC0037100008371000083710000837100008E9
:100FCC00E50F0008F90F0008764A934213D02CE085
:100FDC003B68DB683B6229E03B68DB6804333B62BF
:100FEC0024E03B68DB6808333B621FE03B68DB684E
:100FFC000C333B621AE03B689B68002B02D1042344
:10100C003B6213E03B689B68012B05D108233B62D4
:10101C007B68FA691A6109E008233B627B68FA690C
:10102C005A6103E000233B6200E000BFBB69FF2B69
:10103C0001D87B6801E07B6804337B61BB69FF2BC3
:10104C0002D87B6A9B0002E07B6A083B9B003B61F9
:10105C007B691A680F213B6901FA03F3DB431A40E1
:10106C00396A3B6901FA03F31A437B691A603B68DE
:10107C005B6803F08053002B00F0A9804A4B9B69FE
:10108C00494A43F001039361474B9B6903F0010309
:10109C00BB60BB68454A7B6A9B08023352F823301D
:1010AC00FB607B6A03F003039B000F2202FA03F33D
:1010BC00DB43FA681340FB607B683D4A93420DD0DA
:1010CC007B683C4A934207D07B683B4A934201D1F0
:1010DC00022304E0032302E0012300E000237A6AE8
:1010EC0002F0030292009340FA681343FB602F490D
:1010FC007B6A9B080233FA6841F823203B685B68E3
:10110C0003F48013002B06D02C4B9A682B49BB6937
:10111C0013438B6006E0294B9A68BB69DB43274974
:10112C0013408B603B685B6803F40013002B06D004
:10113C00224BDA682149BB691343CB6006E01F4B95
:10114C00DA68BB69DB431D491340CB603B685B68C5
:10115C0003F40033002B06D0184B5A681749BB69AF
:10116C0013434B6006E0154B5A68BB69DB431349CC
:10117C0013404B603B685B6803F48033002B1FD03B
:10118C000E4B1A680D49BB6913430B601FE000BF7F
:10119C00000032100000311000002210000021105D
:1011AC00000012100000111000100240000001405D
:1011BC0000080140000C01400010014000040140F7
:1011CC000B4B1A68BB69DB43094913400B607B6A04
:1011DC0001337B623B681A687B6A22FA03F3002BAB
:1011EC007FF496AE00BF00BF2C37BD4680BC704765
:1011FC000004014080B483B000AF78600B467B8064
:10120C0013467B707B78002B03D07A887B681A613D
:10121C0003E07B881A047B681A6100BF0C37BD465B
:10122C0080BC704780B485B000AF78600B467B8083
:10123C007B68DB68FB607A88FB6813401A04FB68E8
:10124C00D9437B880B401A437B681A6100BF143763
:10125C00BD4680BC7047000080B586B000AF78609A
:10126C007B68002B01D1012372E27B681B6803F0C1
:10127C000103002B00F08780924B5B6803F00C039A
:10128C00042B0CD08F4B5B6803F00C03082B12D192
:10129C008C4B5B6803F48033B3F5803F0BD1894BE7
:1012AC001B6803F40033002B6CD07B685B68002B4D
:1012BC0068D101234CE27B685B68B3F5803F06D1B3
:1012CC00804B1B687F4A43F4803313602EE07B68AD
:1012DC005B68002B0CD17B4B1B687A4A23F4803360
:1012EC001360784B1B68774A23F4802313601DE04E
:1012FC007B685B68B3F5A02F0CD1724B1B68714AED
:10130C0043F4802313606F4B1B686E4A43F48033A5
:10131C0013600BE06B4B1B686A4A23F48033136039
:10132C00684B1B68674A23F4802313607B685B68F7
:10133C00002B13D0FFF7CAFC386108E0FFF7C6FC9E
:10134C0002463B69D31A642B01D9032300E25D4B9F
:10135C001B6803F40033002BF0D014E0FFF7B6FC4D
:10136C00386108E0FFF7B2FC02463B69D31A642BE4
:10137C0001D90323ECE1534B1B6803F40033002B1E
:10138C00F0D100E000BF7B681B6803F00203002B68
:10139C0063D04C4B5B6803F00C03002B0BD0494B18
:1013AC005B6803F00C03082B1CD1464B5B6803F401
:1013BC008033002B16D1434B1B6803F00203002B28
:1013CC0005D07B681B69012B01D00123C0E13D4B8B
:1013DC001B6823F0F8027B685B69DB003949134317
:1013EC000B603AE07B681B69002B20D0364B012246
:1013FC001A60FFF76BFC386108E0FFF767FC0246E8
:10140C003B69D31A022B01D90323A1E12D4B1B6895
:10141C0003F00203002BF0D02A4B1B6823F0F802D8
:10142C007B685B69DB00274913430B6015E0264B97
:10143C0000221A60FFF74AFC386108E0FFF746FC0F
:10144C0002463B69D31A022B01D9032380E11D4BC1
:10145C001B6803F00203002BF0D17B681B6803F0C0
:10146C000803002B3AD07B689B69002B19D0174BD3
:10147C0001221A60FFF72AFC386108E0FFF726FC0E
:10148C0002463B69D31A022B01D9032360E10D4BB1
:10149C005B6A03F00203002BF0D0012000F09CFAF1
:1014AC001CE00A4B00221A60FFF710FC38610FE0B9
:1014BC00FFF70CFC02463B69D31A022B08D9032315
:1014CC0046E100BF0010024000004242800442424C
:1014DC00924B5B6A03F00203002BE9D17B681B681B
:1014EC0003F00403002B00F0A6800023FB758B4B4C
:1014FC00DB6903F08053002B0DD1884BDB69874AE5
:10150C0043F08053D361854BDB6903F08053BB60A0
:10151C00BB680123FB75824B1B6803F48073002BA3
:10152C0018D17F4B1B687E4A43F480731360FFF71E
:10153C00CDFB386108E0FFF7C9FB02463B69D31AC3
:10154C00642B01D9032303E1754B1B6803F48073EF
:10155C00002BF0D07B68DB68012B06D16F4B1B6A2C
:10156C006E4A43F0010313622DE07B68DB68002BAD
:10157C000CD16A4B1B6A694A23F001031362674B57
:10158C001B6A664A23F0040313621CE07B68DB6869
:10159C00052B0CD1614B1B6A604A43F004031362A8
:1015AC005E4B1B6A5D4A43F0010313620BE05B4B1D
:1015BC001B6A5A4A23F001031362584B1B6A574AA1
:1015CC0023F0040313627B68DB68002B15D0FFF754
:1015DC007DFB38610AE0FFF779FB02463B69D31AC1
:1015EC0041F28832934201D90323B1E04B4B1B6A81
:1015FC0003F00203002BEED014E0FFF767FB386119
:10160C000AE0FFF763FB02463B69D31A41F28832CA
:10161C00934201D903239BE0404B1B6A03F0020366
:10162C00002BEED1FB7D012B05D13C4BDB693B4AFA
:10163C0023F08053D3617B68DB69002B00F087803B
:10164C00364B5B6803F00C03082B61D07B68DB69BD
:10165C00022B46D1334B00221A60FFF737FB38615F
:10166C0008E0FFF733FB02463B69D31A022B01D982
:10167C0003236DE0294B1B6803F00073002BF0D1A2
:10168C007B681B6AB3F5803F08D1244B5B6823F45D
:10169C0000327B689B68214913434B601F4B5B688E
:1016AC0023F474127B68196A7B685B6A0B431B49D1
:1016BC0013434B601B4B01221A60FFF707FB386189
:1016CC0008E0FFF703FB02463B69D31A022B01D952
:1016DC0003233DE0114B1B6803F00073002BF0D08B
:1016EC0035E0104B00221A60FFF7F0FA386108E081
:1016FC00FFF7ECFA02463B69D31A022B01D90323FC
:10170C0026E0064B1B6803F00073002BF0D11EE0A3
:10171C007B68DB69012B07D1012319E00010024023
:10172C0000700040600042420B4B5B68FB60FB6842
:10173C0003F480327B681B6A9A4206D1FB6803F47F
:10174C0070127B685B6A9A4201D0012300E000238F
:10175C0018461837BD4680BD0010024080B584B0D5
:10176C0000AF786039607B68002B01D10123D0E099
:10177C006A4B1B6803F007033A689A4210D9674B0F
:10178C001B6823F0070265493B6813430B60634BEE
:10179C001B6803F007033A689A4201D00123B8E0B2
:1017AC007B681B6803F00203002B20D07B681B684E
:1017BC0003F00403002B05D0594B5B68584A43F4E3
:1017CC00E06353607B681B6803F00803002B05D0B3
:1017DC00534B5B68524A43F460535360504B5B6805
:1017EC0023F0F0027B689B684D4913434B607B6888
:1017FC001B6803F00103002B40D07B685B68012B56
:10180C0007D1474B1B6803F40033002B15D1012380
:10181C007FE07B685B68022B07D1414B1B6803F0B0
:10182C000073002B09D1012373E03D4B1B6803F0BF
:10183C000203002B01D101236BE0394B5B6823F0D1
:10184C0003027B685B68364913434B60FFF73EFA33
:10185C00F8600AE0FFF73AFA0246FB68D31A41F245
:10186C008832934201D9032353E02D4B5B6803F07C
:10187C000C027B685B689B009A42EBD1274B1B6880
:10188C0003F007033A689A4210D2244B1B6823F0EA
:10189C00070222493B6813430B60204B1B6803F083
:1018AC0007033A689A4201D0012332E07B681B6837
:1018BC0003F00403002B08D0194B5B6823F4E0629F
:1018CC007B68DB68164913434B607B681B6803F02D
:1018DC000803002B09D0124B5B6823F460527B6821
:1018EC001B69DB000E4913434B6000F021F80246E4
:1018FC000B4B5B681B0903F00F030A49CB5C22FA04
:10190C0003F3094A1360094B1B681846FFF79CF94F
:10191C00002318461037BD4680BD00BF0020024092
:10192C000010024088240008200000202400002021
:10193C0080B487B000AF0023FB600023BB600023A2
:10194C007B6100237B6000233B611E4B5B68FB606B
:10195C00FB6803F00C03042B02D0082B03D027E008
:10196C00194B3B6127E0FB689B0C03F00F03174AF4
:10197C00D35C7B60FB6803F48033002B10D0114BDD
:10198C005B685B0C03F00103114AD35CBB607B68A2
:10199C000D4A03FB02F2BB68B2FBF3F37B6104E07C
:1019AC007B680C4A02FB03F37B617B693B6102E0C1
:1019BC00054B3B6100BF3B6918461C37BD4680BCDC
:1019CC00704700BF0010024000127A0098240008F3
:1019DC00A824000800093D0080B485B000AF7860F1
:1019EC000A4B1B680A4AA2FB03235B0A7A6802FBB8
:1019FC0003F3FB6000BFFB685A1EFA60002BF9D1A1
:101A0C0000BF00BF1437BD4680BC704720000020CB
:101A1C00D34D621080B582B000AF78607B68002B2C
:101A2C0001D1012341E07B6893F83D30DBB2002B00
:101A3C0006D17B68002283F83C207868FFF736F8E3
:101A4C007B68022283F83D207B681A687B6804332C
:101A5C001946104600F056FA7B68012283F846209E
:101A6C007B68012283F83E207B68012283F83F20AB
:101A7C007B68012283F840207B68012283F8412097
:101A8C007B68012283F842207B68012283F8432083
:101A9C007B68012283F844207B68012283F845206F
:101AAC007B68012283F83D20002318460837BD4689
:101ABC0080BD000080B485B000AF78607B6893F87F
:101ACC003D30DBB2012B01D0012335E07B680222D3
:101ADC0083F83D207B681B68DA687B681B6842F0E2
:101AEC000102DA607B681B68164A934209D07B6856
:101AFC001B68B3F1804F04D07B681B68124A934279
:101B0C0011D17B681B689B6803F00703FB60FB68C3
:101B1C00062B10D07B681B681A687B681B6842F028
:101B2C0001021A6007E07B681B681A687B681B68F7
:101B3C0042F001021A60002318461437BD4680BCDF
:101B4C00704700BF002C01400004004080B584B0F9
:101B5C0000AF78607B681B68DB68FB607B681B6888
:101B6C001B69BB60BB6803F00203002B20D0FB6831
:101B7C0003F00203002B1BD07B681B686FF0020282
:101B8C001A617B6801221A777B681B689B6903F0DA
:101B9C000303002B03D0786800F098F905E078680F
:101BAC0000F08BF9786800F09AF97B6800221A77BC
:101BBC00BB6803F00403002B20D0FB6803F0040384
:101BCC00002B1BD07B681B686FF004021A617B68CA
:101BDC0002221A777B681B689B6903F44073002B05
:101BEC0003D0786800F072F905E0786800F065F9C8
:101BFC00786800F074F97B6800221A77BB6803F0F0
:101C0C000803002B20D0FB6803F00803002B1BD02B
:101C1C007B681B686FF008021A617B6804221A77D4
:101C2C007B681B68DB6903F00303002B03D0786827
:101C3C0000F04CF905E0786800F03FF9786800F0A6
:101C4C004EF97B6800221A77BB6803F01003002B57
:101C5C0020D0FB6803F01003002B1BD07B681B68A3
:101C6C006FF010021A617B6808221A777B681B6878
:101C7C00DB6903F44073002B03D0786800F026F97D
:101C8C0005E0786800F019F9786800F028F97B68AD
:101C9C0000221A77BB6803F00103002B0CD0FB6801
:101CAC0003F00103002B07D07B681B686FF0010267
:101CBC001A617868FEF744FDBB6803F08003002BC3
:101CCC000CD0FB6803F08003002B07D07B681B68EB
:101CDC006FF080021A61786800F06FFABB6803F04D
:101CEC004003002B0CD0FB6803F04003002B07D003
:101CFC007B681B686FF040021A61786800F0F8F896
:101D0C00BB6803F02003002B0CD0FB6803F020030E
:101D1C00002B07D07B681B686FF020021A61786873
:101D2C0000F042FA00BF1037BD4680BD80B584B0CC
:101D3C0000AF786039600023FB737B6893F83C300C
:101D4C00012B01D10223B4E07B68012283F83C20F3
:101D5C007B68022283F83D207B681B689B68BB6014
:101D6C00BB6823F07703BB60BB6823F47F43BB6085
:101D7C007B681B68BA689A603B681B68B3F5005FA8
:101D8C003ED0B3F5005F00F28780B3F5805F00F0C2
:101D9C008680B3F5805F7FD8702B1AD0702B7BD8E0
:101DAC00602B50D0602B77D8502B3CD0502B73D855
:101DBC00402B58D0402B6FD8302B64D0302B6BD8A5
:101DCC00202B60D0202B67D8002B5CD0102B5AD046
:101DDC0062E07B6818683B6899683B685A683B68A6
:101DEC00DB6800F06AF97B681B689B68BB60BB68AA
:101DFC0043F07703BB607B681B68BA689A604FE05E
:101E0C007B6818683B6899683B685A683B68DB6874
:101E1C0000F053F97B681B689A687B681B6842F476
:101E2C0080429A603CE07B6818683B6859683B6864
:101E3C00DB681A4600F0CAF87B681B68502118460C
:101E4C0000F021F92CE07B6818683B6859683B6806
:101E5C00DB681A4600F0E8F87B681B6860211846BE
:101E6C0000F011F91CE07B6818683B6859683B6806
:101E7C00DB681A4600F0AAF87B681B6840211846FC
:101E8C0000F001F90CE07B681A683B681B68194686
:101E9C00104600F0F8F803E00123FB7300E000BFEC
:101EAC007B68012283F83D207B68002283F83C206C
:101EBC00FB7B18461037BD4680BD80B483B000AFA5
:101ECC00786000BF0C37BD4680BC704780B483B0CF
:101EDC0000AF786000BF0C37BD4680BC704780B443
:101EEC0083B000AF786000BF0C37BD4680BC704734
:101EFC0080B483B000AF786000BF0C37BD4680BCA7
:101F0C007047000080B485B000AF786039607B68A2
:101F1C001B68FB607B682B4A934207D07B68B3F14C
:101F2C00804F03D07B68284A934208D1FB6823F08A
:101F3C007003FB603B685B68FA681343FB607B686B
:101F4C00204A934207D07B68B3F1804F03D07B6863
:101F5C001D4A934208D1FB6823F44073FB603B6835
:101F6C00DB68FA681343FB60FB6823F080023B6874
:101F7C005B691343FB607B68FA681A603B689A687C
:101F8C007B68DA623B681A687B689A627B680D4AE8
:101F9C00934203D13B681A697B681A637B68012200
:101FAC005A617B681B6903F00103002B05D07B6829
:101FBC001B6923F001027B681A6100BF1437BD4610
:101FCC0080BC7047002C01400004004080B487B0F6
:101FDC0000AFF860B9607A60FB681B6A7B61FB68D4
:101FEC001B6A23F00102FB681A62FB689B693B6168
:101FFC003B6923F0F0033B617B681B013A69134397
:10200C003B617B6923F00A037B617A69BB681343EC
:10201C007B61FB683A699A61FB687A691A6200BF56
:10202C001C37BD4680BC704780B487B000AFF860E9
:10203C00B9607A60FB681B6A7B61FB681B6A23F0E2
:10204C001002FB681A62FB689B693B613B6923F4D5
:10205C0070433B617B681B033A6913433B617B69AB
:10206C0023F0A0037B61BB681B017A6913437B617E
:10207C00FB683A699A61FB687A691A6200BF1C377F
:10208C00BD4680BC704780B485B000AF78603960C5
:10209C007B689B68FB60FB6823F07003FB603A680D
:1020AC00FB68134343F00703FB607B68FA689A6094
:1020BC0000BF1437BD4680BC704780B487B000AFFA
:1020CC00F860B9607A603B60FB689B687B617B69F8
:1020DC0023F47F437B613B681A027B681A43BB681D
:1020EC0013437A6913437B61FB687A699A6000BF7A
:1020FC001C37BD4680BC704780B485B000AF78609B
:10210C0039607B6893F83C30012B01D1022341E00C
:10211C007B68012283F83C207B68022283F83D20F7
:10212C007B681B685B68FB607B681B689B68BB609B
:10213C00FB6823F07003FB603B681B68FA68134371
:10214C00FB607B681B68FA685A607B681B68144AE2
:10215C00934209D07B681B68B3F1804F04D07B6835
:10216C001B68104A93420CD1BB6823F08003BB6000
:10217C003B685B68BA681343BB607B681B68BA68D2
:10218C009A607B68012283F83D207B68002283F8EB
:10219C003C20002318461437BD4680BC704700BF56
:1021AC00002C01400004004080B483B000AF786084
:1021BC0000BF0C37BD4680BC704780B483B000AF05
:1021CC00786000BF0C37BD4680BC7047024B01469F
:1021DC00186800F02BB800BF78000020024B0146B5
:1021EC00186800F0F3B800BF7800002070B50E4EF0
:1021FC000C463168054611B900F0ACF83060214648
:10220C00284600F0A7F8431C0AD0C41C24F0030491
:10221C00A04207D0211A284600F09CF8013001D1C9
:10222C004FF0FF34204670BDFC0000202DE9F84330
:10223C00CD1C25F0030508350C2D38BF0C25002DC1
:10224C00074601DBA94205D90C2300263B6030462A
:10225C00BDE8F883DFF8D08000F068F8D8F80030DB
:10226C001C465CBB29463846FFF7C0FF431C04469E
:10227C0055D1D8F800402646002E45D1002C48D028
:10228C0023683146384604EB030900F063F88145B6
:10229C003FD1216838466D1A2946FFF7A7FF013058
:1022AC0037D023682B442360D8F80030002B38D06B
:1022BC005A68A2422BD100225A600FE02268521BAE
:1022CC001FD40B2A17D96119A342256018BF596076
:1022DC00636808BFC8F8001062514B60384604F1BF
:1022EC000B0600F029F826F00706231DF21AAED0D3
:1022FC009B1BA350ABE7A3426268DDD1C8F800205A
:10230C00ECE723466468ACE734467668B4E71346DA
:10231C00CCE70C2338463B6000F00EF897E72560BD
:10232C00DCE75B60FFDE00BFF8000020014800F036
:10233C004BB800BF3C020020014800F046B800BF7B
:10234C003C02002003460244934200D1704703F83C
:10235C00011BF9E738B50023054D044608462B60F0
:10236C00FEF7FAFB431C02D12B6803B1236038BD86
:10237C0038020020014B1868704700BF780000201D
:10238C0070B500260C4D0D4C641BA410A64209D14F
:10239C0000F064F800260A4D0A4C641BA410A642F7
:1023AC0005D170BD55F8043B98470136EEE755F85A
:1023BC00043B98470136F2E7AC240008AC24000833
:1023CC00AC240008B02400087047704738B50546A7
:1023DC00002940D051F8043C0C1F002BB8BFE41866
:1023EC00FFF7A4FF1C4A136833B9636014602846D6
:1023FC00BDE83840FFF7A0BFA34208D920682118D8
:10240C008B4201BF19685B6809182160EDE71A4619
:10241C005B680BB1A342FAD911685018A0420BD1DA
:10242C0020680144501883421160E0D118685B6841
:10243C00084410605360DAE702D90C232B60D6E70E
:10244C00206821188B4201BF19685B68091821604C
:10245C0063605460CBE738BDF8000020F8B500BFCE
:10246C00F8BC08BC9E467047F8B500BFF8BC08BC69
:04247C009E467047C1
:102480004000800000010002000000000000000089
:1024900001020304060708090203040506070809E8
:0C24A0000A0B0C0D0E0F101001020000C2
:0424AC0031010008F2
:0424B0000D01000812
:1024B400010203040F0832000400080000040008AD
:1024C400001000200040008066667E7E46663C1850
:1024D40000127A001000000001000000000000005B
:1024E4000001002068010020D0010020000000004D
:1024F40000000000000000000000000000000000D8
:1025040000000000000000000000000000000000C7
:1025140000000000000000000000000000000000B7
:0C25240000000000000000002C0000205F
:0400000508000BDD07
:00000001FF
