:020000040800F2
:1000000000280020C11300085D12000863120008D8
:10001000691200086F120008751200080000000045
:100020000000000000000000000000007B1200083B
:100030008712000800000000931200089F120008B9
:10004000091400080914000809140008091400081C
:10005000091400080914000809140008091400080C
:1000600009140008091400080914000809140008FC
:1000700009140008091400080914000809140008EC
:1000800009140008091400080914000809140008DC
:1000900009140008091400080914000809140008CC
:1000A00009140008091400080914000809140008BC
:1000B000AD1200080914000800000000091400082F
:1000C00009140008000000000000000009140008E6
:1000D00000000000091400080914000800000000D6
:1000E00009140008091400080914000800000000A1
:1000F0000000000000000000000000000000000000
:0C01000000000000000000005FF808F1A3
:10010C0010B5054C237833B9044B13B10448AFF345
:10011C0000800123237010BD6C0000200000000043
:10012C00842C000808B5034B1BB103490348AFF3FB
:10013C00008008BD0000000070000020842C000826
:10014C0080B500AF00220721024801F062FC00BF1D
:10015C0080BD00BF000C014080B500AF00223821EB
:10016C00024801F056FC00BF80BD00BF000C0140EE
:10017C0080B500AFBB4B1B781946022000F016FD72
:10018C00032001F0CBF80346002B09D000F0EAFC69
:10019C00B44B1B78002B03D16421032001F08AF8A7
:1001AC00002000F0B1FB0346002B02D1AE4B012224
:1001BC001A70AE4B1B78042B00F2908001A252F8FF
:1001CC0023F000BFA7020008230200086502000804
:1001DC00E9020008E5010008A44B00221A70A44BA8
:1001EC001B781946002000F0E1FCFFF7A9FF012263
:1001FC000121A04801F00DFC9D4B1B781A4664238D
:10020C0002FB03F31946002001F054F8642103208B
:10021C0001F050F869E0002001F080F80346012B52
:10022C005ED1924B02221A70914B9B78194600209A
:10023C0000F0BCFCFFF784FF012202218D4801F085
:10024C00E8FB8B4B9B781A46642302FB03F319469D
:10025C00002001F02FF843E0002001F05FF8034686
:10026C00012B3FD1814B00221A70814B1B78194610
:10027C00002000F09BFCFFF763FF012201217D4869
:10028C0001F0C7FB7A4B1B781A46642302FB03F37D
:10029C001946002001F00EF824E0002001F03EF891
:1002AC000346012B20D1714B01221A70704B5B78E5
:1002BC001946002000F07AFCFFF742FF01220421CE
:1002CC006C4801F0A6FB6A4B5B781A46642302FB70
:1002DC0003F31946002000F0EDFF05E000BF04E039
:1002EC0000BF02E000BF00E000BF634B1B78042B93
:1002FC0000F28C8001A252F823F000BFD703000853
:10030C005303000895030008190400081D03000896
:10031C00594B01221A70564B5B781946012000F09C
:10032C0045FCFFF719FF01222021524801F071FB17
:10033C004F4B5B781A46642302FB03F319460120EA
:10034C0000F0B8FF69E0012000F0E8FF0346012B44
:10035C005ED1494B02221A70454B9B7819460120FD
:10036C0000F024FCFFF7F8FE01221021414801F0B7
:10037C0050FB3F4B9B781A46642302FB03F3194650
:10038C00012000F097FF43E0012000F0C7FF034677
:10039C00012B3FD1384B00221A70354B1B78194674
:1003AC00012000F003FCFFF7D7FE012208213148A1
:1003BC0001F02FFB2E4B1B781A46642302FB03F330
:1003CC001946012000F076FF24E0012000F0A6FF82
:1003DC000346012B20D1284B01221A70244B5B7849
:1003EC001946012000F0E2FBFFF7B6FE01222021A6
:1003FC00204801F00EFB1E4B5B781A46642302FB6F
:10040C0003F31946012000F055FF05E000BF04E09E
:10041C0000BF02E000BF00E000BF002000F074FA53
:10042C000346012B1CD1104B1B78012B18D10E4B02
:10043C0000221A700B4B1B7801335A4203F0030352
:10044C0002F0030258BF5342DAB2064B1A70074B44
:10045C0003221A70084B03221A70084B00221A70E0
:10046C0000BF80BD8D0000208A0000208800002085
:10047C0000000020000C0140890000208C000020AE
:10048C0080B500AF9E4B1B781946022000F08EFB06
:10049C00002000F039FA0346002B02D1994B0122BF
:1004AC001A70994B1B78022B00F0B180022B00F3D1
:1004BC000281002B02D0012B67D0FCE0934B1A88F1
:1004CC00924B5B8813439AB2904B9B8813439BB21D
:1004DC00002219468E4801F09CFA894B1B78002BA0
:1004EC0009D1894B03221A708A4B04221A708A4B49
:1004FC0004221A70E4E0844B01221A7000F078F99F
:10050C007F4B1B78013B854AD35C1946002000F0D9
:10051C004DFB7B4B1B78013B804AD35C1946012079
:10052C0000F044FB764B1B78013B7C4AD35C7C4A45
:10053C00A2FB0323DB08DAB27A4B1A70704B1B78E0
:10054C00013B764AD25C764BA3FB0213D9080B46CF
:10055C009B000B445B00D31ADAB2724B5A70714B8E
:10056C001A78704B9A706F4B5A786E4BDA70022077
:10057C0000F00AFE03461946002000F09BFE4FF4E3
:10058C007A71022000F096FE9AE0022000F0C6FE7E
:10059C000346012B05D15C4B00221A70584B0022EC
:1005AC001A70002000F0BAFE0346012B11D1544BF7
:1005BC001B78013B554A32F813301946544801F068
:1005CC0040FA022000F0E0FD03461946002000F03E
:1005DC0071FE012000F098F90346012B08D14A4B1B
:1005EC0002221A704FF47A71022000F063FE64E06C
:1005FC00022000F089F90346002B5ED000F096F83B
:10060C00414B00221A703E4B00221A7055E002201A
:10061C0000F084FE0346012B05D13B4B00221A70DF
:10062C00374B00221A70002000F078FE0346012B95
:10063C0011D1334B1B78013B344A32F81330194635
:10064C00334801F0FEF9022000F09EFD03461946E6
:10065C00002000F02FFE012000F056F90346002B7D
:10066C0002D1314B01221A70022000F04DF90346E1
:10067C00012B08D100F05AF8234B00221A70204BA2
:10068C0000221A701BE0012000F03EF90346012BFA
:10069C0015D1254B1B78012B11D1234B00221A703D
:1006AC00174B1B78184600F057F84FF47A7102205C
:1006BC0000F000FE03E000BF02E000BF00E000BF5E
:1006CC00002000F021F90346012B16D10D4B1B78AD
:1006DC00012B12D10B4B00221A70094B1B780133E2
:1006EC005A4203F0030302F0030258BF5342DAB23A
:1006FC00034B1A70044B00221A7000BF80BD00BF60
:10070C008D0000208A0000208C00002004000020B6
:10071C00000C01408800002089000020900000207F
:10072C00CDCCCCCCB40000208B00002080B400AF2A
:10073C00074B1A78074B1A70054B5A78054B5A70B1
:10074C00034B9A78034B9A7000BFBD4680BC704730
:10075C00900000200000002080B483B000AF03465E
:10076C00FB71FB79002B36D0FB79013B1C4AD35C27
:10077C0001331C4A82FB03125111DA178A1A6421C5
:10078C0001FB02F29A1AFB79013BD1B2144AD15403
:10079C00FB79013B124AD35C134AA2FB0323DB080F
:1007AC00DAB2124B1A70FB79013B0D4AD25C0E4B3C
:1007BC00A3FB0213D9080B469B000B445B00D31A16
:1007CC00DAB20A4B5A70094B1A78084B9A70074BDD
:1007DC005A78064BDA7000BF0C37BD4680BC7047A8
:1007EC00900000201F85EB51CDCCCCCCB400002068
:1007FC0080B400AF074B1A78074B1A70054B5A7828
:10080C00054B5A70034B9A78034B9A7000BFBD4648
:10081C0080BC7047000000209000002090B583B091
:10082C0000AF0023FB7156E0FA79FB792E49895C05
:10083C002E4AD154FA79FB792D49895C2A4AD15434
:10084C002C4B1A68FB792C4931F81330FC7919467A
:10085C00104601F0C7F803461A46254B1A55FB798A
:10086C00234AD25CFB792049CB5C9A420DD1FB79AF
:10087C001D4AD25CFB791D49CB5C9A4205D1FA79B1
:10088C00FB791B49895C1D4AD154FB791B4AD35C0B
:10089C00002B14D1FB791A4A32F81330632B09D888
:1008AC00FB79174A32F81320013291B2144A22F81C
:1008BC0013100DE0FB79134A0121D15408E0FB79A8
:1008CC000F4A002122F81310FB790E4A0021D15453
:1008DC00FB790133FB71FB79022BA5D900BF00BF5B
:1008EC000C37BD4690BD00BF9C000020A00000202E
:1008FC00980000200C0000209C2C00089400002084
:10090C00A8000020A400002080B483B000AF0346F0
:10091C00FB71FB79022B01D9002307E0FB79064A16
:10092C00D35C002B0CBF01230023DBB218460C3721
:10093C00BD4680BC704700BF9400002080B582B0DB
:10094C0000AF0346FB710122FE212F4801F061F834
:10095C00FB79092B52D801A252F823F09109000817
:10096C009D090008A9090008B5090008C10900087B
:10097C00CD090008D9090008E5090008F1090008AB
:10098C00FD09000800227E211F4801F042F836E0E4
:10099C0000220C211C4801F03CF830E00022B6216A
:1009AC00194801F036F82AE000229E21164801F081
:1009BC0030F824E00022CC21134801F02AF81EE084
:1009CC000022DA21104801F024F818E00022FA2164
:1009DC000D4801F01EF812E000220E210A4801F029
:1009EC0018F80CE00022FE21074801F012F806E08E
:1009FC000022DE21044801F00CF800E000BF00BF2B
:100A0C000837BD4680BD00BF0008014080B483B0EC
:100A1C0000AF786039603B681B781B4AA2FB03234C
:100A2C00DB08DAB27B681A703B681A787B68581C52
:100A3C00154BA3FB0213D9080B469B000B445B0020
:100A4C00D31ADBB203703B6801331A787B6802332C
:100A5C000D49A1FB0212D208D2B21A703B680133C5
:100A6C001A787B68D81C084BA3FB0213D9080B46D9
:100A7C009B000B445B00D31ADBB2037000BF0C3736
:100A8C00BD4680BC704700BFCDCCCCCC80B584B00B
:100A9C0000AF786000237B7309E07B7B0F4A32F850
:100AAC001320FB891343FB817B7B01337B737B7BA3
:100ABC00042BF2D9FB8901221946094800F0A9FF41
:100ACC00064A7B6832F8133000221946044800F0BD
:100ADC00A0FF00BF1037BD4680BD00BFA42C00088E
:100AEC000008014080B584B000AFF860B9601346CF
:100AFC00FB71FB681B781846FFF7C8FFFB681B7877
:100B0C001A46BB6813441B781846FFF717FFFB689F
:100B1C001B780133FA7993FBF2F101FB02F29B1A79
:100B2C00DAB2FB681A7000BF1037BD4680BD0000FA
:100B3C0080B500AF074B1B78002B03D10649074843
:100B4C00FFF764FF052205490548FFF7CBFF00BFFF
:100B5C0080BD00BF8D000020B0000020B40000203C
:100B6C00B900002080B500AF0E4B1B78002B17D1BD
:100B7C000D4B1B78002B07D00B4B1B78013BDBB2CA
:100B8C001946002000F012F8074B5B78002B07D0B9
:100B9C00054B5B78013BDBB21946012000F006F8EF
:100BAC0000BF80BD8D000020B000002080B483B059
:100BBC0000AF03460A46FB711346BB71FB79032B4E
:100BCC000BD8FB790749BA79CA54FB79022B05D1AA
:100BDC00044B9A78044B1A7100E000BF0C37BD46E9
:100BEC0080BC7047B0000020B400002080B500AF7E
:100BFC0000F00CFC00F04AF800F0D0F800F082F89D
:100C0C00184801F065FB00F03FF9174B04221A70ED
:100C1C00164B04221A70164B00221A70154B002228
:100C2C001A7001220121144800F070F901220121EF
:100C3C00124800F06BF901220121114800F066F90D
:100C4C00012201210F4800F061F9322000F09CFADA
:100C5C0003461A4603210C4800F058F900F022FA1A
:100C6C00FCE700BFBC0000208800002089000020A9
:100C7C008C0000208D000020E51200088D04000877
:100C8C007D010008290800083D0B000880B590B0D4
:100C9C0000AF07F1180328220021184601F060FF6D
:100CAC003B1D00221A605A609A60DA601A610223B6
:100CBC00BB610123BB621023FB6200237B6307F142
:100CCC001803184600F0D6FE0346002B01D000F0A6
:100CDC00D6F80F237B600023BB600023FB6000234E
:100CEC003B6100237B613B1D0021184601F044F958
:100CFC000346002B01D000F0C2F800BF4037BD46C0
:100D0C0080BD000080B586B000AF07F1080300225B
:100D1C001A605A609A60DA603B4600221A605A6088
:100D2C001D4B4FF080421A601B4B41F63F725A60CC
:100D3C00194B00229A60184B0922DA60164B0022DC
:100D4C001A61154B00229A61134801F071FA03469F
:100D5C00002B01D000F093F84FF48053BB6007F1E7
:100D6C00080319460C4801F0EFFB0346002B01D099
:100D7C0000F085F800233B6000237B603B4619465E
:100D8C00054801F0C7FD0346002B01D000F077F8B1
:100D9C0000BF1837BD4680BDBC00002080B586B0B2
:100DAC0000AF07F1080300221A605A609A60DA60FB
:100DBC00284B9B69274A43F004039361254B9B699D
:100DCC0003F004037B607B68224B9B69214A43F050
:100DDC00080393611F4B9B6903F008033B603B685E
:100DEC00002241F6FE711C4800F013FE00223F2148
:100DFC001A4800F00EFE41F6FE73BB600123FB6047
:100E0C0000233B6102237B6107F10803194612485A
:100E1C0000F06CFC3F23BB600123FB6000233B61B3
:100E2C0002237B6107F1080319460C4800F05EFCB5
:100E3C004FF46043BB600023FB6001233B6107F16F
:100E4C0008031946044800F051FC00BF1837BD4692
:100E5C0080BD00BF0010024000080140000C0140A2
:100E6C0080B582B000AF78607B681B68B3F1804FAF
:100E7C0001D100F027F800BF0837BD4680BD80B413
:100E8C0000AF72B600BFFEE780B400AF044B002287
:100E9C001A60034B00225A6000BFBD4680BC7047ED
:100EAC000401002080B400AF054B1B680133044AD9
:100EBC001360034B1B681846BD4680BC704700BFCF
:100ECC000C01002080B400AF0F4B1B68002B17D017
:100EDC000D4B1B681B7C002B12D10B4B1B689B68AA
:100EEC00002B04D0084B1B689A68013A9A60064B99
:100EFC001B689B68002B03D1034B1B6801221A74DF
:100F0C0000BFBD4680BC70470401002080B58AB08C
:100F1C0000AFF860B9607A60182001F065FD0346F7
:100F2C007B617B69002B03D05D4B5B68092B01D97E
:100F3C000023B1E05A4B1B68002B1ED1584A7B6929
:100F4C001360574B5B680133554A53607B69FA68F1
:100F5C001A607B69BA689A607B697A68DA607B6927
:100F6C0000221A74FFF79EFF02467B695A617B6967
:100F7C0000225A607B695B698EE000233B62002390
:100F8C00FB770023BB6100233B610023FB77444BC1
:100F9C001B687B6279E07B6A9B68BA691344BB610E
:100FAC00BA69BB689A4238D97B6A9A68BB69D31A0A
:100FBC00BA6813443B61BA69BB68D21A7B6A9A60FF
:100FCC007B697A6A5A603B6A002B03D03B6A7A6968
:100FDC005A6002E0324A7B6913607B69FA681A60D6
:100FEC007B693A699A607B697A68DA607B699B688D
:100FFC00002B0CBF01230023DBB21A467B691A7449
:10100C00FFF750FF02467B695A61254B5B68013341
:10101C00234A53607B695B693EE0FA7F204B5B6837
:10102C00013B9A4229D1BA68BB69D31A3B617B6AEE
:10103C007A695A607B6900225A607B69FA681A6087
:10104C007B693A699A607B697A68DA607B699B682C
:10105C00002B0CBF01230023DBB21A467B691A74E8
:10106C00FFF720FF02467B695A610D4B5B68013329
:10107C000B4A53607B695B690EE0FB7F0133FB77A6
:10108C007B6A3B627B6A5B687B62FA7F044B5B68C2
:10109C009A4280D37B695B6918462837BD4680BD70
:1010AC0004010020B0B586B000AF154B1B681B7C4B
:1010BC00002B21D0124B1B681B689847104B1B68E8
:1010CC0000221A740E4B1B683C461D460FCD0FC4F4
:1010DC0095E8030084E80300FB68002B0CD07B69C7
:1010EC00184600F00FF80346002B05D03B68F96852
:1010FC00FA681846FFF70AFF00BF1837BD46B0BDA7
:10110C000401002080B586B000AF78607B68002BAE
:10111C0033D000233B610023FB730023FB73194B7B
:10112C001B687B6124E07B695B697A689A4217D102
:10113C00144B1B687A699A4204D17B695B68114A2B
:10114C00136003E07B695A683B695A60786901F067
:10115C0053FC0C4B5B68013B0A4A536001230DE0C6
:10116C00FB7B0133FB737B693B617B695B687B6158
:10117C00FA7B044B5B689A42D5D300231846183788
:10118C00BD4680BD0401002080B485B000AF03468D
:10119C00FB80FB884FF47A7292FBF3F3084A82FBD4
:1011AC0003129210DB17D31AFB81FB89002B01D1A0
:1011BC000123FB81FB8918461437BD4680BC704760
:1011CC006766666680B483B000AF0E4B9B690D4AB0
:1011DC0043F0010393610B4B9B6903F001037B60AC
:1011EC007B68084BDB69074A43F08053D361054B9E
:1011FC00DB6903F080533B603B6800BF0C37BD4696
:10120C0080BC70470010024080B584B000AF78609D
:10121C007B681B68B3F1804F13D10C4BDB690B4A15
:10122C0043F00103D361094BDB6903F00103FB605D
:10123C00FB68002200211C2000F021FA1C2000F089
:10124C003AFA00BF1037BD4680BD00BF0010024007
:10125C0080B400AFFEE780B400AFFEE780B400AF0F
:10126C00FEE780B400AFFEE780B400AFFEE780B4C9
:10127C0000AF00BFBD4680BC704780B400AF00BF5C
:10128C00BD4680BC704780B400AF00BFBD4680BC7B
:10129C00704780B500AF00F0FFF800BF80BD0000C4
:1012AC0080B500AF024801F05FF800BF80BD00BF01
:1012BC00BC00002080B483B000AF03463960FB71E2
:1012CC00FB7904493A6841F823200C37BD4680BCB1
:1012DC00704700BF1001002080B483B000AF002322
:1012EC00FB7110E0FB790C4A52F82330002B07D02D
:1012FC00FB79094A52F82320013A074941F8232087
:10130C00FB790133FB71FB79092BEBD900BF00BFD3
:10131C000C37BD4680BC70471001002080B483B0F0
:10132C0000AF0346FB71FB79064A52F82330002BC1
:10133C0001D1012300E0002318460C37BD4680BCC8
:10134C00704700BF1001002080B586B000AF7860F8
:10135C00144A154BD31A7B617B693B61134B1B6899
:10136C00002B02D1114B124A1A60104B1A687B6881
:10137C0013443A699A4207D201F00AFC03460C2244
:10138C001A604FF0FF3309E0084B1B68FB60074BFA
:10139C001A687B681344054A1360FB6818461837B3
:1013AC00BD4680BD0028002000040000380100204C
:1013BC008802002000F023F80B480C490C4A00234B
:1013CC0002E0D458C4500433C4188C42F9D3094AEF
:1013DC00094C002301E013600432A242FBD301F05C
:1013EC00DDFBFFF703FC7047000000206C000020C1
:1013FC00DC2C00086C00002088020020FEE780B482
:10140C0000AF00BFBD4680BC7047000080B500AF88
:10141C00084B1B68074A43F010031360032000F0CD
:10142C0023F90F2000F008F8FFF7CCFE0023184634
:10143C0080BD00BF0020024080B582B000AF786054
:10144C00124B1A68124B1B7819464FF47A73B3FB84
:10145C00F1F3B2FBF3F3184600F03BF90346002B13
:10146C0001D001230EE07B680F2B0AD8002279688B
:10147C004FF0FF3000F003F9064A7B68136000233D
:10148C0000E0012318460837BD4680BD100000203F
:10149C00180000201400002080B400AF054B1B780E
:1014AC001A46054B1B681344034A136000BFBD4624
:1014BC0080BC7047180000203C01002080B400AFB5
:1014CC00024B1B681846BD4680BC70473C0100208F
:1014DC0080B485B000AF78607B6803F00703FB60D5
:1014EC000C4BDB68BB60BA684FF6FF031340BB6064
:1014FC00FB681A02BB68134343F0BF6343F4003329
:10150C00BB60044ABB68D36000BF1437BD4680BCC7
:10151C00704700BF00ED00E080B400AF044BDB6807
:10152C001B0A03F007031846BD4680BC704700BF7A
:10153C0000ED00E080B483B000AF0346FB7197F977
:10154C000730002B0BDBFB7903F01F02064997F9E0
:10155C0007305B09012000FA02F241F8232000BF9A
:10156C000C37BD4680BC704700E100E080B483B00E
:10157C0000AF03463960FB7197F90730002B0ADB8B
:10158C003B68DAB20C4997F907301201D2B20B441E
:10159C0083F800230AE03B68DAB20849FB7903F0D0
:1015AC000F03043B1201D2B20B441A7600BF0C3766
:1015BC00BD4680BC704700BF00E100E000ED00E0DC
:1015CC0080B489B000AFF860B9607A60FB6803F052
:1015DC000703FB61FB69C3F10703042B28BF04233A
:1015EC00BB61FB690433062B02D9FB69033B00E0AA
:1015FC0000237B614FF0FF32BB6902FA03F3DA433D
:10160C00BB681A407B699A404FF0FF317B6901FA45
:10161C0003F3D9437B680B40134318462437BD466C
:10162C0080BC704780B582B000AF78607B68013BAE
:10163C00B3F1807F01D301230FE00A4A7B68013BA1
:10164C0053600F214FF0FF30FFF790FF054B002246
:10165C009A60044B07221A60002318460837BD46CF
:10166C0080BD00BF10E000E080B582B000AF7860B4
:10167C007868FFF72DFF00BF0837BD4680BD80B5E9
:10168C0086B000AF0346B9607A60FB7300237B61C0
:10169C00FFF742FF78617A68B9687869FFF790FFC5
:1016AC00024697F90F3011461846FFF75FFF00BF4F
:1016BC001837BD4680BD80B582B000AF0346FB71C4
:1016CC0097F907301846FFF735FF00BF0837BD46BE
:1016DC0080BD80B582B000AF78607868FFF7A2FF5C
:1016EC00034618460837BD4680BD000080B48BB059
:1016FC0000AF7860396000237B6200233B6261E1BC
:10170C0001227B6A02FA03F3FB613B681B68FA69EE
:10171C001340BB61BA69FB699A4240F050813B6847
:10172C005B68974A93425ED0954A934275D8954A26
:10173C00934258D0934A93426FD8934A934252D0D3
:10174C00914A934269D8914A93424CD08F4A934222
:10175C0063D88F4A934246D08D4A93425DD8122B60
:10176C002AD8122B59D801A252F823F0F3170008EB
:10177C00CD170008DF1700082118000827180008EB
:10178C002718000827180008271800082718000831
:10179C002718000827180008271800082718000821
:1017AC002718000827180008271800082718000811
:1017BC00D5170008E9170008764A934213D02CE09D
:1017CC003B68DB683B6229E03B68DB6804333B62C7
:1017DC0024E03B68DB6808333B621FE03B68DB6856
:1017EC000C333B621AE03B689B68002B02D104234C
:1017FC003B6213E03B689B68012B05D108233B62DD
:10180C007B68FA691A6109E008233B627B68FA6914
:10181C005A6103E000233B6200E000BFBB69FF2B71
:10182C0001D87B6801E07B6804337B61BB69FF2BCB
:10183C0002D87B6A9B0002E07B6A083B9B003B6101
:10184C007B691A680F213B6901FA03F3DB431A40E9
:10185C00396A3B6901FA03F31A437B691A603B68E6
:10186C005B6803F08053002B00F0A9804A4B9B6906
:10187C00494A43F001039361474B9B6903F0010311
:10188C00BB60BB68454A7B6A9B08023352F8233025
:10189C00FB607B6A03F003039B000F2202FA03F345
:1018AC00DB43FA681340FB607B683D4A93420DD0E2
:1018BC007B683C4A934207D07B683B4A934201D1F8
:1018CC00022304E0032302E0012300E000237A6AF0
:1018DC0002F0030292009340FA681343FB602F4915
:1018EC007B6A9B080233FA6841F823203B685B68EB
:1018FC0003F48013002B06D02C4B9A682B49BB6940
:10190C0013438B6006E0294B9A68BB69DB4327497C
:10191C0013408B603B685B6803F40013002B06D00C
:10192C00224BDA682149BB691343CB6006E01F4B9D
:10193C00DA68BB69DB431D491340CB603B685B68CD
:10194C0003F40033002B06D0184B5A681749BB69B7
:10195C0013434B6006E0154B5A68BB69DB431349D4
:10196C0013404B603B685B6803F48033002B1FD043
:10197C000E4B1A680D49BB6913430B601FE000BF87
:10198C000000321000003110000022100000211065
:10199C000000121000001110001002400000014065
:1019AC0000080140000C01400010014000040140FF
:1019BC000B4B1A68BB69DB43094913400B607B6A0C
:1019CC0001337B623B681A687B6A22FA03F3002BB3
:1019DC007FF496AE00BF00BF2C37BD4680BC70476D
:1019EC000004014080B485B000AF78600B467B806A
:1019FC007B689A687B881340002B02D00123FB7311
:101A0C0001E00023FB73FB7B18461437BD4680BCFA
:101A1C00704780B483B000AF78600B467B80134670
:101A2C007B707B78002B03D07A887B681A6103E08B
:101A3C007B881A047B681A6100BF0C37BD4680BCDA
:101A4C00704780B485B000AF78600B467B807B68B4
:101A5C00DB68FB607A88FB6813401A04FB68D94387
:101A6C007B880B401A437B681A6100BF1437BD4654
:101A7C0080BC704780B586B000AF78607B68002B67
:101A8C0001D1012372E27B681B6803F00103002B78
:101A9C0000F08780924B5B6803F00C03042B0CD096
:101AAC008F4B5B6803F00C03082B12D18C4B5B68DB
:101ABC0003F48033B3F5803F0BD1894B1B6803F4DF
:101ACC000033002B6CD07B685B68002B68D1012342
:101ADC004CE27B685B68B3F5803F06D1804B1B689A
:101AEC007F4A43F4803313602EE07B685B68002BE5
:101AFC000CD17B4B1B687A4A23F480331360784BF0
:101B0C001B68774A23F4802313601DE07B685B68B5
:101B1C00B3F5A02F0CD1724B1B68714A43F4802390
:101B2C0013606F4B1B686E4A43F4803313600BE0F9
:101B3C006B4B1B686A4A23F480331360684B1B6839
:101B4C00674A23F4802313607B685B68002B13D0F7
:101B5C00FFF7B4FC386108E0FFF7B0FC02463B69C4
:101B6C00D31A642B01D9032300E25D4B1B6803F4E9
:101B7C000033002BF0D014E0FFF7A0FC386108E034
:101B8C00FFF79CFC02463B69D31A642B01D9032353
:101B9C00ECE1534B1B6803F40033002BF0D100E055
:101BAC0000BF7B681B6803F00203002B63D04C4B17
:101BBC005B6803F00C03002B0BD0494B5B6803F004
:101BCC000C03082B1CD1464B5B6803F48033002BB1
:101BDC0016D1434B1B6803F00203002B05D07B6826
:101BEC001B69012B01D00123C0E13D4B1B6823F085
:101BFC00F8027B685B69DB00394913430B603AE000
:101C0C007B681B69002B20D0364B01221A60FFF732
:101C1C0055FC386108E0FFF751FC02463B69D31ACA
:101C2C00022B01D90323A1E12D4B1B6803F0020306
:101C3C00002BF0D02A4B1B6823F0F8027B685B6901
:101C4C00DB00274913430B6015E0264B00221A607A
:101C5C00FFF734FC386108E0FFF730FC02463B69C3
:101C6C00D31A022B01D9032380E11D4B1B6803F00F
:101C7C000203002BF0D17B681B6803F00803002BD8
:101C8C003AD07B689B69002B19D0174B01221A6044
:101C9C00FFF714FC386108E0FFF710FC02463B69C3
:101CAC00D31A022B01D9032360E10D4B5B6A03F0BD
:101CBC000203002BF0D0012000F09CFA1CE00A4B30
:101CCC0000221A60FFF7FAFB38610FE0FFF7F6FB12
:101CDC0002463B69D31A022B08D9032346E100BF05
:101CEC00001002400000424280044242924B5B6A68
:101CFC0003F00203002BE9D17B681B6803F004039B
:101D0C00002B00F0A6800023FB758B4BDB6903F0E6
:101D1C008053002B0DD1884BDB69874A43F08053ED
:101D2C00D361854BDB6903F08053BB60BB68012337
:101D3C00FB75824B1B6803F48073002B18D17F4B0F
:101D4C001B687E4A43F480731360FFF7B7FB38615E
:101D5C0008E0FFF7B3FB02463B69D31A642B01D9A9
:101D6C00032303E1754B1B6803F48073002BF0D045
:101D7C007B68DB68012B06D16F4B1B6A6E4A43F004
:101D8C00010313622DE07B68DB68002B0CD16A4BDE
:101D9C001B6A694A23F001031362674B1B6A664A8C
:101DAC0023F0040313621CE07B68DB68052B0CD169
:101DBC00614B1B6A604A43F0040313625E4B1B6A5F
:101DCC005D4A43F0010313620BE05B4B1B6A5A4AFA
:101DDC0023F001031362584B1B6A574A23F0040388
:101DEC0013627B68DB68002B15D0FFF767FB38614B
:101DFC000AE0FFF763FB02463B69D31A41F28832D3
:101E0C00934201D90323B1E04B4B1B6A03F002034D
:101E1C00002BEED014E0FFF751FB38610AE0FFF71E
:101E2C004DFB02463B69D31A41F28832934201D9E9
:101E3C0003239BE0404B1B6A03F00203002BEED103
:101E4C00FB7D012B05D13C4BDB693B4A23F08053D6
:101E5C00D3617B68DB69002B00F08780364B5B68B5
:101E6C0003F00C03082B61D07B68DB69022B46D195
:101E7C00334B00221A60FFF721FB386108E0FFF7B3
:101E8C001DFB02463B69D31A022B01D903236DE0DB
:101E9C00294B1B6803F00073002BF0D17B681B6A85
:101EAC00B3F5803F08D1244B5B6823F400327B6888
:101EBC009B68214913434B601F4B5B6823F47412DE
:101ECC007B68196A7B685B6A0B431B4913434B6045
:101EDC001B4B01221A60FFF7F1FA386108E0FFF79B
:101EEC00EDFA02463B69D31A022B01D903233DE0DC
:101EFC00114B1B6803F00073002BF0D035E0104B36
:101F0C0000221A60FFF7DAFA386108E0FFF7D6FA18
:101F1C0002463B69D31A022B01D9032326E0064B58
:101F2C001B6803F00073002BF0D11EE07B68DB69AB
:101F3C00012B07D1012319E0001002400070004072
:101F4C00600042420B4B5B68FB60FB6803F4803221
:101F5C007B681B6A9A4206D1FB6803F470127B689B
:101F6C005B6A9A4201D0012300E00023184618371F
:101F7C00BD4680BD0010024080B584B000AF7860D3
:101F8C0039607B68002B01D10123D0E06A4B1B68C0
:101F9C0003F007033A689A4210D9674B1B6823F089
:101FAC00070265493B6813430B60634B1B6803F0E6
:101FBC0007033A689A4201D00123B8E07B681B689A
:101FCC0003F00203002B20D07B681B6803F0040392
:101FDC00002B05D0594B5B68584A43F4E0635360BF
:101FEC007B681B6803F00803002B05D0534B5B6820
:101FFC00524A43F460535360504B5B6823F0F00239
:10200C007B689B684D4913434B607B681B6803F0EE
:10201C000103002B40D07B685B68012B07D1474B39
:10202C001B6803F40033002B15D101237FE07B6880
:10203C005B68022B07D1414B1B6803F00073002B2C
:10204C0009D1012373E03D4B1B6803F00203002B05
:10205C0001D101236BE0394B5B6823F003027B68F1
:10206C005B68364913434B60FFF728FAF8600AE0C7
:10207C00FFF724FA0246FB68D31A41F288329342E6
:10208C0001D9032353E02D4B5B6803F00C027B68F2
:10209C005B689B009A42EBD1274B1B6803F007034C
:1020AC003A689A4210D2244B1B6823F0070222494B
:1020BC003B6813430B60204B1B6803F007033A6823
:1020CC009A4201D0012332E07B681B6803F00403C1
:1020DC00002B08D0194B5B6823F4E0627B68DB684B
:1020EC00164913434B607B681B6803F00803002BF5
:1020FC0009D0124B5B6823F460527B681B69DB00D0
:10210C000E4913434B6000F021F802460B4B5B6801
:10211C001B0903F00F030A49CB5C22FA03F3094AAB
:10212C001360094B1B681846FFF786F90023184605
:10213C001037BD4680BD00BF002002400010024099
:10214C00B02C0008100000201400002080B487B0D0
:10215C0000AF0023FB600023BB6000237B610023E6
:10216C007B6000233B611E4B5B68FB60FB6803F0EC
:10217C000C03042B02D0082B03D027E0194B3B6136
:10218C0027E0FB689B0C03F00F03174AD35C7B60C2
:10219C00FB6803F48033002B10D0114B5B685B0C95
:1021AC0003F00103114AD35CBB607B680D4A03FB4F
:1021BC0002F2BB68B2FBF3F37B6104E07B680C4A70
:1021CC0002FB03F37B617B693B6102E0054B3B61E6
:1021DC0000BF3B6918461C37BD4680BC704700BF2A
:1021EC000010024000127A00C02C0008D02C00080D
:1021FC0000093D0080B485B000AF78600A4B1B68C5
:10220C000A4AA2FB03235B0A7A6802FB03F3FB6016
:10221C0000BFFB685A1EFA60002BF9D100BF00BF4B
:10222C001437BD4680BC704710000020D34D62109F
:10223C0080B582B000AF78607B68002B01D10123A0
:10224C0041E07B6893F83D30DBB2002B06D17B6814
:10225C00002283F83C207868FEF7D6FF7B680222C8
:10226C0083F83D207B681A687B6804331946104656
:10227C0000F056FA7B68012283F846207B68012225
:10228C0083F83E207B68012283F83F207B68012283
:10229C0083F840207B68012283F841207B6801226F
:1022AC0083F842207B68012283F843207B6801225B
:1022BC0083F844207B68012283F845207B68012247
:1022CC0083F83D20002318460837BD4680BD00002A
:1022DC0080B485B000AF78607B6893F83D30DBB29A
:1022EC00012B01D0012335E07B68022283F83D20CD
:1022FC007B681B68DA687B681B6842F00102DA6055
:10230C007B681B68164A934209D07B681B68B3F143
:10231C00804F04D07B681B68124A934211D17B68B2
:10232C001B689B6803F00703FB60FB68062B10D04F
:10233C007B681B681A687B681B6842F001021A6094
:10234C0007E07B681B681A687B681B6842F0010217
:10235C001A60002318461437BD4680BC704700BF76
:10236C00002C01400004004080B584B000AF7860C0
:10237C007B681B68DB68FB607B681B681B69BB6048
:10238C00BB6803F00203002B20D0FB6803F00203B0
:10239C00002B1BD07B681B686FF002021A617B68F4
:1023AC0001221A777B681B689B6903F00303002BDF
:1023BC0003D0786800F098F905E0786800F08BF9A4
:1023CC00786800F09AF97B6800221A77BB6803F0F2
:1023DC000403002B20D0FB6803F00403002B1BD05C
:1023EC007B681B686FF004021A617B6802221A7703
:1023FC007B681B689B6903F44073002B03D07868DF
:10240C0000F072F905E0786800F065F9786800F082
:10241C0074F97B6800221A77BB6803F00803002B61
:10242C0020D0FB6803F00803002B1BD07B681B68D3
:10243C006FF008021A617B6804221A777B681B68AC
:10244C00DB6903F00303002B03D0786800F04CF930
:10245C0005E0786800F03FF9786800F04EF97B6889
:10246C0000221A77BB6803F01003002B20D0FB6806
:10247C0003F01003002B1BD07B681B686FF010025D
:10248C001A617B6808221A777B681B68DB6903F486
:10249C004073002B03D0786800F026F905E07868CB
:1024AC0000F019F9786800F028F97B6800221A7797
:1024BC00BB6803F00103002B0CD0FB6803F0010395
:1024CC00002B07D07B681B686FF001021A617868DB
:1024DC00FEF7C6FCBB6803F08003002B0CD0FB6836
:1024EC0003F08003002B07D07B681B686FF0800221
:1024FC001A61786800F06FFABB6803F04003002B98
:10250C000CD0FB6803F04003002B07D07B681B68E2
:10251C006FF040021A61786800F0F8F8BB6803F0BD
:10252C002003002B0CD0FB6803F02003002B07D0FA
:10253C007B681B686FF020021A61786800F042FA21
:10254C0000BF1037BD4680BD80B584B000AF786049
:10255C0039600023FB737B6893F83C30012B01D16D
:10256C000223B4E07B68012283F83C207B680222C2
:10257C0083F83D207B681B689B68BB60BB6823F0BD
:10258C007703BB60BB6823F47F43BB607B681B682D
:10259C00BA689A603B681B68B3F5005F3ED0B3F530
:1025AC00005F00F28780B3F5805F00F08680B3F5A2
:1025BC00805F7FD8702B1AD0702B7BD8602B50D0BB
:1025CC00602B77D8502B3CD0502B73D8402B58D045
:1025DC00402B6FD8302B64D0302B6BD8202B60D095
:1025EC00202B67D8002B5CD0102B5AD062E07B6874
:1025FC0018683B6899683B685A683B68DB6800F070
:10260C006AF97B681B689B68BB60BB6843F0770307
:10261C00BB607B681B68BA689A604FE07B6818687F
:10262C003B6899683B685A683B68DB6800F053F973
:10263C007B681B689A687B681B6842F480429A60CE
:10264C003CE07B6818683B6859683B68DB681A4655
:10265C0000F0CAF87B681B685021184600F021F97D
:10266C002CE07B6818683B6859683B68DB681A4645
:10267C0000F0E8F87B681B686021184600F011F93F
:10268C001CE07B6818683B6859683B68DB681A4635
:10269C0000F0AAF87B681B684021184600F001F98D
:1026AC000CE07B681A683B681B681946104600F002
:1026BC00F8F803E00123FB7300E000BF7B68012204
:1026CC0083F83D207B68002283F83C20FB7B184676
:1026DC001037BD4680BD80B483B000AF786000BFBA
:1026EC000C37BD4680BC704780B483B000AF7860B7
:1026FC0000BF0C37BD4680BC704780B483B000AFC0
:10270C00786000BF0C37BD4680BC704780B483B086
:10271C0000AF786000BF0C37BD4680BC704700002E
:10272C0080B485B000AF786039607B681B68FB6053
:10273C007B682B4A934207D07B68B3F1804F03D060
:10274C007B68284A934208D1FB6823F07003FB6036
:10275C003B685B68FA681343FB607B68204A9342D2
:10276C0007D07B68B3F1804F03D07B681D4A93423E
:10277C0008D1FB6823F44073FB603B68DB68FA68A4
:10278C001343FB60FB6823F080023B685B691343D7
:10279C00FB607B68FA681A603B689A687B68DA624F
:1027AC003B681A687B689A627B680D4A934203D136
:1027BC003B681A697B681A637B6801225A617B68E3
:1027CC001B6903F00103002B05D07B681B6923F008
:1027DC0001027B681A6100BF1437BD4680BC70478C
:1027EC00002C01400004004080B487B000AFF860BA
:1027FC00B9607A60FB681B6A7B61FB681B6A23F01B
:10280C000102FB681A62FB689B693B613B6923F020
:10281C00F0033B617B681B013A6913433B617B69A5
:10282C0023F00A037B617A69BB6813437B61FB6805
:10283C003A699A61FB687A691A6200BF1C37BD4617
:10284C0080BC704780B487B000AFF860B9607A6024
:10285C00FB681B6A7B61FB681B6A23F01002FB6838
:10286C001A62FB689B693B613B6923F470433B61D3
:10287C007B681B033A6913433B617B6923F0A0031C
:10288C007B61BB681B017A6913437B61FB683A6906
:10289C009A61FB687A691A6200BF1C37BD4680BC1E
:1028AC00704780B485B000AF786039607B689B68F6
:1028BC00FB60FB6823F07003FB603A68FB68134312
:1028CC0043F00703FB607B68FA689A6000BF14371B
:1028DC00BD4680BC704780B487B000AFF860B9606B
:1028EC007A603B60FB689B687B617B6923F47F4368
:1028FC007B613B681A027B681A43BB6813437A6995
:10290C0013437B61FB687A699A6000BF1C37BD4634
:10291C0080BC704780B485B000AF786039607B684C
:10292C0093F83C30012B01D1022341E07B6801225A
:10293C0083F83C207B68022283F83D207B681B686F
:10294C005B68FB607B681B689B68BB60FB6823F063
:10295C007003FB603B681B68FA681343FB607B6881
:10296C001B68FA685A607B681B68144A934209D04A
:10297C007B681B68B3F1804F04D07B681B68104ADE
:10298C0093420CD1BB6823F08003BB603B685B684F
:10299C00BA681343BB607B681B68BA689A607B6833
:1029AC00012283F83D207B68002283F83C20002321
:1029BC0018461437BD4680BC704700BF002C014040
:1029CC000004004080B483B000AF786000BF0C37C7
:1029DC00BD4680BC704780B483B000AF786000BF48
:1029EC000C37BD4680BC7047024B0146186800F09E
:1029FC002BB800BF68000020024B0146186800F09D
:102A0C00F3B800BF6800002070B50E4E0C4631685C
:102A1C00054611B900F0ACF830602146284600F0AC
:102A2C00A7F8431C0AD0C41C24F00304A04207D00E
:102A3C00211A284600F09CF8013001D14FF0FF34E8
:102A4C00204670BD440100202DE9F843CD1C25F033
:102A5C00030508350C2D38BF0C25002D074601DB6E
:102A6C00A94205D90C2300263B603046BDE8F8830B
:102A7C00DFF8D08000F068F8D8F800301C465CBB5A
:102A8C0029463846FFF7C0FF431C044655D1D8F8F9
:102A9C0000402646002E45D1002C48D023683146F4
:102AAC00384604EB030900F063F881453FD12168F7
:102ABC0038466D1A2946FFF7A7FF013037D0236837
:102ACC002B442360D8F80030002B38D05A68A2422F
:102ADC002BD100225A600FE02268521B1FD40B2A04
:102AEC0017D96119A342256018BF5960636808BFE4
:102AFC00C8F8001062514B60384604F10B0600F028
:102B0C0029F826F00706231DF21AAED09B1BA35002
:102B1C00ABE7A3426268DDD1C8F80020ECE723469E
:102B2C006468ACE734467668B4E71346CCE70C230C
:102B3C0038463B6000F00EF897E72560DCE75B60F9
:102B4C00FFDE00BF40010020014800F04BB800BF81
:102B5C0084020020014800F046B800BF8402002027
:102B6C0003460244934200D1704703F8011BF9E776
:102B7C0038B50023054D044608462B60FEF7E4FBF0
:102B8C00431C02D12B6803B1236038BD80020020A6
:102B9C00014B1868704700BF6800002070B5002614
:102BAC000C4D0D4C641BA410A64209D100F064F826
:102BBC0000260A4D0A4C641BA410A64205D170BD18
:102BCC0055F8043B98470136EEE755F8043B984717
:102BDC000136F2E7D42C0008D42C0008D42C0008C1
:102BEC00D82C00087047704738B50546002940D0EE
:102BFC0051F8043C0C1F002BB8BFE418FFF7A4FFDE
:102C0C001C4A136833B9636014602846BDE8384029
:102C1C00FFF7A0BFA34208D9206821188B4201BF3F
:102C2C0019685B6809182160EDE71A465B680BB1FF
:102C3C00A342FAD911685018A0420BD12068014464
:102C4C00501883421160E0D118685B68084410602A
:102C5C005360DAE702D90C232B60D6E720682118E1
:102C6C008B4201BF19685B6809182160636054606E
:102C7C00CBE738BD40010020F8B500BFF8BC08BC5C
:102C8C009E467047F8B500BFF8BC08BC9E4670471E
:102C9C000020004000800000000100020004000839
:102CAC0000100000000000000000000001020304FE
:102CBC000607080902030405060708090A0B0C0D90
:082CCC000E0F101001020000C0
:042CD40031010008C2
:042CD8000D010008E2
:102CDC000A0703000900240012000000000801404C
:102CEC0000127A001000000001000000000000003B
:102CFC0048010020B0010020180200200000000054
:102D0C0000000000000000000000000000000000B7
:102D1C0000000000000000000000000000000000A7
:102D2C000000000000000000000000000000000097
:0C2D3C0000000000000000001C0000204F
:04000005080013C11B
:00000001FF
